:100C210041444A204E5443205247004C696768743E
:100C3100004461726B0041444A3A25647C4E54433E
:100C41003A25647C4C494748543A25647C535441C5
:100C51005455533A25737C54454D503A252E3166EF
:100C61000D0A00000000000000000000000000006C
:100C71000000000000000000000000000000000073
:100C81000000000000000000000000000000000063
:100C91000000000000000000000000000000000053
:100CA1000000000000000000000000000000000043
:030CB10000000040
:100B330078007C007D017BFF7A0C79647E007F5016
:100B430012059B120FC27FE87E03120F79120F6307
:100B5300120F8D7BFF7A0C79217D017F01120E87A5
:100B6300120FC2120E0F8F1C8E1B8D1A8C197F9CB5
:100B7300120CB48E228F23752F04AB23AA227D017E
:100B83007F02120EC87FDC120CB48E248F25752FC2
:100B930004AB25AA247D067F02120EC87FAC120C7B
:100BA300B48E268F27752F04AB27AA267D0B7F02D1
:100BB300120EC8D3E527941EE5269400400B752832
:100BC300FF75290C752A2C80097528FF75290C756A
:100BD3002A32752EFF752F0C753037852231852308
:100BE3003285243385253485263585273685283770
:100BF300852938852A39851C3D851B3C851A3B850B
:100C0300193A7B017A0079001207207B017A007977
:0E0C130000120E627F647E00120F79020B63E6
:100F7900EF4E600F7D027CC7DCFEDDFCEF1F70F0D9
:030F89001E80EDDA
:010F8C002242
:060FB300C2A58F80D2A749
:080FB9007F0B7EBEDEFEDFFCB3
:010FC100220D
:0A0FDB00C2A6120FB3C2A7020FB99D
:100EAA00CFCDCFCECCCE12062B7C007D0A12062BDC
:040EBA00ED2430FFF4
:0A0EBE00D2A6120FB3C2A7020FB9AB
:100F4D00AE07BE0104ED148006BE0209ED243F4438
:060F5D0080FF120FDB22F1
:100F8D007F38120FDB7F0C120FDB7F06120FDB7F1A
:040F9D0001020FDB63
:0A0FE500AC03120F4DAF04020EBE64
:060E87008B2B8A2C892D43
:100E8D00120F4DE4FDAB2BAA2CA92D8D827583007D
:0C0E9D001205DAFF6006120EBE0D80E99F
:010EA9002226
:0C0DDC007F0AEA24FFFDE434FFFC7E00E7
:080DE8008E308F318C328D3307
:100DF0007F017E00E4FBEBC39533E5326480F87439
:0E0E00008098500AAC30AD311206190B80E814
:010E0E0022C1
:040EC8008A2D8B2EB6
:100ECC00120F4DAA2FEAD39400400D120DDCAC2D5D
:080EDC00AD2E120EAA1A80EDE2
:010EE40022EB
:100D3100120F4DC3EA64809480400B7F2B120EBECC
:100D41008A0D8B0E800E7F2D120EBEC3E49BF50E15
:100D5100E49AF50DAA0CEAD39400400D120DDCAC17
:090D61000DAD0E120EAA1A80ED70
:010D6A002266
:040D6B008A118B124C
:100D6F00120F4DAA13EAD3940040297F10120DDE03
:100D7F00AC11AD12CFCDCFCECCCE12062BEF540F80
:100D8F00FEC3940AEE5004243080022437FF120E63
:040D9F00BE1A80D127
:010DA300222D
:040DA4008A168B1709
:100DA800120F4DAA18EAD394004028EA24FFFDE464
:100DB80034FFFC7F027E00120DE8AC16AD17CFCDD4
:100DC800CFCECCCE12062BEF54012430FF120EBE2C
:030DD8001A80D2AC
:010DDB0022F5
:020CB4008F2B84
:100CB600E4F52CF52DC2B6C2B5F52E74807E00A8DB
:100CC6002E088006CEA2E713CE13D8F8FFEF552BD9
:100CD60024FF92B4D2B6C2B6052EE52EB408DCE4E3
:100CE600F52ED2B6C2B67F017E00120F7930B71448
:100CF600E47E80A82E088005CEC313CE13D8F94211
:100D06002DEE422C052EE52EC3941040D5D2B5E526
:100D16002B30E306E52CFF7E0022E52CC4F854F0C8
:0A0D2600C868FEE52DC4540F48FF15
:010D300022A0
:100F630075985053890F438920758DFD758BFDD27C
:060F73008ED2ACD2AF22C9
:080FEF008F993099FDC299228F
:100E62008B2B8A2C892DAB2BAA2CA92D1205C160A4
:100E720013052DE52D7002052C14F91205C1FF1280
:050E82000FEF80E222E9
:0D0FC200120F027FCC120F1C7F44020F1C87
:100E0F00120F027FCC120F1C7FBE120F1C120EE5A9
:100E1F008F2B120EE5EFFEE52BFFFDAC06EC12005B
:0B0E2F00A8E4FBFA798078411200066D
:010E3A002295
:100F0200D2B7C2B77FF7DFFED2B77F20DFFEA2B72C
:090F1200E433FE7FF7DFFEAF06B9
:010F1B0022B3
:100FA100C2B77E04DEFEEF24FF92B77E18DEFED2CA
:010FB100B788
:010FB200221C
:100F3500C2B77F02DFFED2B77F02DFFEA2B7E4337E
:070F4500FE7F18DFFEAF067E
:010F4C002282
:020F1C00AD071F
:100F1E00E4FC7401A804088002C333D8FC5DFF1200
:060F2E000FA10CBC08EC51
:010F3400229A
:100EE500E4FDFC120F35EF600D7401A804088002C3
:0C0EF500C333D8FC42050CBC08E9AF0573
:010F010022CD
:10000300020120EC5D046005E85904700302011647
:100013001200E1580460F6EC4860F2EC7004FDFE57
:10002300FF22C860DB2481C85009C39860025006D0
:1000330002011D9850CAF582E9294B4A7005AB822B
:1000430002010C75F0007C1A7880C3EF9BEE9AEDE9
:1000530099400DC3EF9BFFEE9AFEED99FDE842F048
:10006300DC23ACF0D0E0FFD0E0FED0E0FDAB82209B
:10007300E7101BEB60BAEC2CFCEF33FFEE33FEED25
:1000830033FD0200F8E803F830E705C0F075F0002F
:10009300EF2FFFEE33FEED33FD40B830E7C280AA09
:1000A30075F020800E75F010800575F0087D007ED8
:1000B300007F003392D530D503120680EC33401015
:1000C300EF33FFEE33FEED33FDEC33FCD5F0ED22E1
:0E00D300E5F0247EA2D513CC92E7CDCEFF221D
:1006C400E542242EF8E6054222782B300702782EE4
:1006D400E475F00112068E0205C12000EB7F2ED2D4
:1006E400008018EF540F2490D43440D4FF30040B0E
:1006F400EF24BFB41A0050032461FFE543600215E0
:10070400430546E5467002054530070D782BE47530
:10071400F00112068EEF020607020E3B7403D207A5
:100724008003E4C207F5428B2B8A2C892DE4F54320
:10073400F545F546E54360077F201206FF80F57511
:1007440044FFC201C200C202C203C205C206C208FB
:100754001206CDFF700D3007057F00120710AF465B
:10076400AE4522B4255FC2D5C2041206CDFF24D003
:10077400B40A00501A75F00A784330D50508B6FF5C
:100784000106C6A426F620D5047002D20380D9241B
:10079400CFB41A00EF5004C2E5D2040209FDD2011D
:1007A40080C6D20080C0D20280BCD2D580BAD20525
:1007B40080B47F201206FF2002077401B543004075
:1007C400F11206C4FF1206FF020738D208D20680CF
:1007D400951206C4FB1206C4FA1206C4F94A4B70F9
:1007E4000679F47A0A7BFF20022EE543602A7E0014
:1007F4008E827583001205DA60060EEE654470F091
:10080400C2D5EBC0E0EAC0E0E9C0E0EE120A5DD078
:10081400E0F9D0E0FAD0E0FB1205C1FF60AAEBC01A
:10082400E0EAC0E0E9C0E01206FFD0E02401F9D01C
:10083400E03400FAD0E0FBE5440460DCD544D98020
:1008440087D20280A2120A4060F7E54470010412C4
:10085400012BA944600DE544600914F544120AE72C
:10086400EF60F3EA30E702F404C3995077EAF42521
:10087400440430E701E404F544800D120A4060C1E9
:10088400EA0544254412012BEA7841F630E701E4F5
:10089400254404D5440420050114120A5DE4C0E093
:1008A400120AE77841E6601320E70714F61206E718
:1008B400802204F6D0E014C0E07F001206E7E5448D
:1008C40060071206DE1544800B3005031206DED0E5
:1008D400E0020738D0E00480C5120A4060A0E54475
:1008E4000412012B7841EAF6E54420050260010474
:0508F4002404120A5D5E
:1008F90074FF04C0E0120AE71206E7E54420050286
:1009090060031206DED0E0B544E87F451206F178AF
:1009190041E67F2B30E7047F2DF404C0E01206FF87
:10092900D0E075F00A84C0F01206E8D0E01206E8BB
:10093900020738791080027908C206C2088008D2F5
:10094900D5790A8004790AC2D5E544047002F544D0
:10095900E4FAFDFEFF1206C4FC7B0820011312060F
:10096900C4FD7B1030000A1206C4FE1206C4FF7BC8
:1009790020EC3382D592D55013C3E43000069FFF93
:10098900E49EFEE42001039DFDE49CFCE4CBF8C257
:1009990001EC700CCFCECDCCE824F8F870F38017B9
:1009A900C3EF33FFEE33FEED33FDEC33FCEB33FBEA
:1009B900994002FB0FD8E9EB300105F8D0E0C448B3
:1009C900B201C0E00AEC4D4E4F78207B0070C2EABC
:1009D900B5440040BCC0E0120A5FD0F0D0E020016D
:1009E90004C4C0E0C4B201C0F01206E8D0F0D5F0EA
:1009F900EB02073812069E07D553093C5807A64C47
:100A090007A24209404F09484409484907BB43091D
:100A19004E55087F4608DD450849470B145007AA7B
:100A29002D07AE2E07D12B07B22307CF200AFD2AA7
:100A3900076A48000007C9E544B4FF037544061274
:100A490006C4FC1206C4FD1206C4FE1206C4FF78D1
:100A59003A02015A790AA2D5200314300509B910BE
:100A6900020404B9080104A2D52006025001042099
:100A790002689202B543005034C0E07F2030031968
:100A89007F30A20272067205500F120AB6C202C264
:100A990006C205C2087F30800F300503E9C0E012A5
:100AA90006FF300503D0E0F9D0E0B543CC30051797
:100AB9007F30B9100C1206FF7F583004077F788009
:100AC90003B908031206FF3002057F2D0206FF7FD6
:100AD900202008F87F2B2006F322920280CF7F0086
:100AE900B407005005243AF8E6FF22286E756C6CAD
:100AF9002900D2011206C43001F8C201784330D569
:100B09000108F602076A2D504349581206C4240306
:100B1900B405004001E4900B0F931206F0743A12E9
:0A0B290006F0D20375430402093CF4
:1000E100E9D2E7C933E833F892D5EDD2E7CD33EC65
:0700F10033FC5002B2D522DE
:1000F800EC30E7100FBF000C0EBE00080DBD000469
:100108000BEB6014A2D5EB13FCED92E7FD2274FF14
:10011800FCFDFEFF22E480F8A2D574FF13FC7D806D
:03012800E480EF81
:10012B00F920E72824F950037907E4F42402FB189B
:10013B00DBFDE624FB5014E9600DE4F618E604F64B
:0F014B00B40A08E4F6D9F57401F60A22C2D522E7
:10015A00ED33EC3392D5FA602AB4FF33EDC2E77B74
:10016A00FF60067A01797FE4227A01798820D50432
:10017A007A017983224E614E002B494E46002D4961
:10018A004E4600E47A08F608DAFC7B00740722E897
:10019A00C0E0ECC0E0EDC0E0EEC0E0EFC0E0EA7520
:1001AA00F010A4CAABF075F04DA42BFBE435F0FCBB
:1001BA00EA2410FAEB34C5FBEC34D9FCEDC2E7FFB4
:1001CA0075F056A4F42411C5F0F434C58FF0A42AAE
:1001DA00E5F03BE43CF620E71412048BD0E0FFD0B4
:1001EA00E0FED0E0FDD0E0FC1200068014F4041218
:1001FA00048BD0E0FFD0E0FED0E0FDD0E0FC12039B
:10020A0055D0E0F8E6FAEDD2E7CD33EC332482FBA1
:10021A00E4C3CF33CFCE33CECD33CD33DBF37B073D
:10022A0075F00A846004F6081B0AE5F0F6088FF0F8
:10023A00740AA4FFACF08EF0740AA42CFEACF05041
:10024A00010C8DF0740AA42CFDE435F0F608DBDE0F
:03025A0074072204
:10025D00020116E86480F8E933E83360110460F0B8
:10026D00ED33EC337009E8FCE9FDEAFEEBFF220407
:10027D0060DED3EB9FEA9EE99DE8C2E78CF0C2F702
:10028D0095F0400CE8CCF8E9CDF9EACEFAEBCFFBCE
:10029D001200E185D0F05804700320D5B3E8047046
:1002AD00075002B2D502012092D5EC0460F7E4CCE0
:1002BD00C0E0C398F8603B94186008400DD0E0FB97
:1002CD000200F8E4FBFAC9FC8028E830E406E4C932
:1002DD00FBE4CAFCE830E305E4C9CACBFCE85407EB
:1002ED006010F8C3E913F9EA13FAEB13FBEC13FCF6
:1002FD00D8F130F52FC3E49CFCEF9BFFEE9AFEED99
:10030D0099FDD0E0FBEF4E4D4C701222DB03020144
:10031D001DEC2CFCEF33FFEE33FEED33FDED30E73E
:10032D00EB0200F8EF2BFFEE3AFEED39FDD0E0FBCE
:10033D0050130BBB0003020120ED13FDEE13FEEF76
:08034D0013FFEC13FC0200F8A1
:10035500EC4D6011E8497017ED33EC3304600DE4A2
:10036500FCFFFEFD22E933E8330470F802011612A2
:1003750000E158046009E4CC2481500628500902A4
:10038500012028400302011DC0E0EB4A7044B980FA
:1003950006D0E0FB02010CEF4E701CBD8008EBFFA0
:1003A500EAFEE9FD80EBE98DF0A4FEE5F002043EEE
:1003B500E9CDF9EAFEEBFFEF89F0A4FCE5F0CE8983
:1003C500F0A42EFFE435F0CD89F0A42DFEE435F040
:1003D5008067EF4E7005BD80D780C3EF8BF0A4AC6E
:1003E500F0EE8BF0A42CFCE435F0F8EF8AF0A42CA9
:1003F500E5F038FCE433CB8DF0A42CFCE5F03BF8BC
:10040500EE8AF0A42CFCE5F038F8E433CF89F0A4AB
:100415002CFCE5F038CF3400CE89F0A42FFFE5F0B1
:100425003EFEE433C98DF0A42EFEE5F039CD8AF009
:10043500A42FFFE5F03EFEE43DFD33D0E0FB500781
:100445000BBB000F020120EC2CFCEF33FFEE33FE5B
:06045500ED33FD0200F88A
:10045B003F8000004120000042C80000447A0000A9
:10046B00461C400047C35000497424004B1896802B
:10047B004CBEBC205A0E1BCA6753C21C749DC5AE22
:10048B00FB60065407601C23231204B9EB5438603D
:10049B00091204A51204B4120355ECF8EDF9EEFAA7
:1004AB00EFCB22EB1204B480F1543803241C9004DC
:1004BB005BFE93FC0EEE93FD0EEE930ECE93FF229E
:03000000020FCF1D
:0C0FCF00787FE4F6D8FD758146020B33F4
:1004CB00E709F608DFFA8046E709F208DFFA803E13
:1004DB0088828C83E709F0A3DFFA8032E309F60800
:1004EB00DFFA8078E309F208DFFA807088828C8368
:1004FB00E309F0A3DFFA806489828A83E0A3F6081C
:10050B00DFFA805889828A83E0A3F208DFFA804CF5
:10051B0080D280FA80C680D4806980F280338010CC
:10052B0080A680EA809A80A880DA80E280CA803335
:10053B0089828A83ECFAE493A3C8C582C8CCC583AD
:10054B00CCF0A3C8C582C8CCC583CCDFE9DEE7807D
:10055B000D89828A83E493A3F608DFF9ECFAA9F0FC
:10056B00EDFB2289828A83ECFAE0A3C8C582C8CC52
:10057B00C583CCF0A3C8C582C8CCC583CCDFEADE6B
:10058B00E880DB89828A83E493A3F208DFF980CCCD
:10059B0088F0EF60010E4E60C388F0ED2402B404C6
:1005AB000050B9F582EB2402B4040050AF2323456D
:0605BB00822390051B7372
:1005C100BB010689828A83E0225002E722BBFE0238
:0905D100E32289828A83E493226B
:1005DA00BB010CE58229F582E5833AF583E02250D6
:1005EA0006E92582F8E622BBFE06E92582F8E22220
:0D05FA00E58229F582E5833AF583E493223A
:10060700BB010689828A83F0225002F722BBFE01D2
:02061700F322CC
:10061900EF8DF0A4A8F0CF8CF0A428CE8DF0A42EF5
:02062900FE22AF
:10062B00BC000BBE0029EF8DF084FFADF022E4CCB3
:10063B00F875F008EF2FFFEE33FEEC33FCEE9DEC7C
:10064B00984005FCEE9DFE0FD5F0E9E4CEFD22EDC2
:10065B00F8F5F0EE8420D21CFEADF075F008EF2F0C
:10066B00FFED33FD4007985006D5F0F222C398FDFD
:05067B000FD5F0EA229A
:0E068000C3E49FFFE49EFEE49DFDE49CFC228B
:10068E00FAE6FB0808E6F925F0F618E6CA3AF6226D
:10069E00D083D082F8E4937012740193700DA3A3EB
:1006AE0093F8740193F5828883E4737402936860FF
:0606BE00EFA3A3A380DFFF
:100E3B00EFB40A07740D120E46740A309811A89974
:100E4B00B8130CC2983098FDA899C298B811F63017
:070E5B0099FDC299F59922EF
:00000001FF
