:10062A0041444A20204E54432020524700427269D6
:10063A00676874004E6F726D616C004461726B0082
:10064A0041444A3A25647C4E54433A25647C4C49D9
:10065A004748543A25647C5354415455533A2573B8
:10066A000D0A000000000000000000000000000069
:10067A000000000000000000000000000000000070
:10068A000000000000000000000000000000000060
:10069A000000000000000000000000000000000050
:0306AA000000004D
:10054A0078287C007D007BFF7A06796D7E007F40EB
:10055A0012042F1208C81208F27BFF7A06792A7D44
:10056A00017F011208547F9C1206AD8E228F2375DB
:10057A006F04AB23AA227D017F021208957FDC1249
:10058A0006AD8E248F25756F04AB25AA247D067FC0
:10059A00021208957FAC1206AD8E268F27756F045E
:1005AA00AB27AA267D0B7F02120895D3E527942054
:1005BA00E5269403400B7568FF756906756A3780EE
:1005CA001FD3E527942CE5269401400B7568FF7527
:1005DA006906756A3E80097568FF756906756A4518
:1005EA00756EFF756F0675704A852271852372854F
:1005FA0024738525748526758527768568778569A8
:10060A0078856A797B007A00792812005F7B007A04
:10061A0000792812082F7F647E001208DE02057016
:1008DE00EF4E600F7D027CC7DCFEDDFCEF1F70F07B
:0308EE001E80ED7C
:0108F10022E4
:06090600C2A58F80D2A7FC
:08090C007F0B7EBEDEFEDFFC66
:0109140022C0
:0A092100C2A6120906C2A702090CC3
:10087700CFCDCFCECCCE1204AD7C007D0A1204AD15
:04088700ED2430FF2D
:0A088B00D2A6120906C2A702090C4A
:1008B200AE07BE0104ED148006BE0209ED243F44DA
:0608C20080FF1209212253
:1008F2007F381209217F0C1209217F061209217FFC
:0409020001020921C4
:0A092B00AC031208B2AF0402088BFF
:060854008B6B8A6C896DBC
:10085A001208B2E4FDAB6BAA6CA96D8D8275830098
:0C086A0012046EFF600612088B0D80E97E
:01087600225F
:0C07D5007F0AEA24FFFDE434FFFC7E00F4
:0807E1008E708F718C728D7314
:1007E9007F017E00E4FBEBC39573E5726480F874C6
:0E07F9008098500AAC70AD7112049B0B80E822
:0108070022CE
:040895008A6D8B6E6F
:100899001208B2AA6FEAD39400400D1207D5AC6DC5
:0808A900AD6E1208771A80ED14
:0108B1002224
:10072A001208B2C3EA64809480400B7F2B12088BB4
:10073A008A0D8B0E800E7F2D12088BC3E49BF50E5B
:10074A00E49AF50DAA0CEAD39400400D1207D5AC31
:09075A000DAD0E1208771A80EDB6
:010763002273
:040764008A118B1259
:100768001208B2AA13EAD3940040297F101207D7BF
:10077800AC11AD12CFCDCFCECCCE1204ADEF540F0D
:10078800FEC3940AEE5004243080022437FF120876
:040798008B1A80D167
:01079C00223A
:04079D008A168B1716
:1007A1001208B2AA18EAD394004028EA24FFFDE413
:1007B10034FFFC7F027E001207E1AC16AD17CFCDEE
:1007C100CFCECCCE1204ADEF54012430FF12088BF2
:0307D1001A80D2B9
:0107D4002202
:0206AD008F6B51
:1006AF00E4F56CF56DC2B6C2B5F56E74807E00A828
:1006BF006E088006CEA2E713CE13D8F8FFEF556B66
:1006CF0024FF92B4D2B6C2B6056EE56EB408DCE470
:1006DF00F56ED2B6C2B67F017E001208DE30B714B7
:1006EF00E47E80A86E088005CEC313CE13D8F942DE
:1006FF006DEE426C056EE56EC3941040D5D2B5E534
:10070F006B30E306E56CFF7E0022E56CC4F854F015
:0A071F00C868FEE56DC4540F48FFE2
:0107290022AD
:1008C80075985053890F438920758DFD758BFDD21E
:0608D8008ED2ACD2AF226B
:080935008F993099FDC299224F
:10082F008B6B8A6C896DAB6BAA6CA96D12045560CA
:10083F0013056DE56D7002056C14F9120455FF1266
:05084F00093580E222E2
:03000000020915DD
:0C091500787FE4F6D8FD75817E02054A6B
:10035F00E709F608DFFA8046E709F208DFFA803E80
:10036F0088828C83E709F0A3DFFA8032E309F6086D
:10037F00DFFA8078E309F208DFFA807088828C83D5
:10038F00E309F0A3DFFA806489828A83E0A3F60889
:10039F00DFFA805889828A83E0A3F208DFFA804C63
:1003AF0080D280FA80C680D4806980F2803380103A
:1003BF0080A680EA809A80A880DA80E280CA8033A3
:1003CF0089828A83ECFAE493A3C8C582C8CCC5831B
:1003DF00CCF0A3C8C582C8CCC583CCDFE9DEE780EB
:1003EF000D89828A83E493A3F608DFF9ECFAA9F06A
:1003FF00EDFB2289828A83ECFAE0A3C8C582C8CCC0
:10040F00C583CCF0A3C8C582C8CCC583CCDFEADED8
:10041F00E880DB89828A83E493A3F208DFF980CC3A
:10042F0088F0EF60010E4E60C388F0ED2402B40433
:10043F000050B9F582EB2402B4040050AF232345DA
:06044F0082239003AF734D
:10045500BB010689828A83E0225002E722BBFE02A5
:09046500E32289828A83E49322D8
:10046E00BB010CE58229F582E5833AF583E0225043
:10047E0006E92582F8E622BBFE06E92582F8E2228D
:0D048E00E58229F582E5833AF583E49322A7
:10049B00EF8DF0A4A8F0CF8CF0A428CE8DF0A42E75
:0204AB00FE222F
:1004AD00BC000BBE0029EF8DF084FFADF022E4CC33
:1004BD00F875F008EF2FFFEE33FEEC33FCEE9DECFC
:1004CD00984005FCEE9DFE0FD5F0E9E4CEFD22ED42
:1004DD00F8F5F0EE8420D21CFEADF075F008EF2F8C
:1004ED00FFED33FD4007985006D5F0F222C398FD7D
:0504FD000FD5F0EA221A
:10000300E57A246EF8E6057A22786B300702786E7B
:10001300E475F0011205140204552000EB7F2ED283
:10002300008018EF540F2490D43440D4FF30040BD5
:10003300EF24BFB41A0050032461FFE57B6002156F
:100043007B057EE57E7002057D30070D786BE475D8
:10005300F001120514EF0205020208087403D20727
:100063008003E4C207F57A8B6B8A6C896DE4F57BB8
:10007300F57DF57EE57B60077F2012003E80F575F8
:100083007CFFC201C200C202C203C205C206C2088B
:1000930012000CFF700D3007057F0012004FAF7E7A
:1000A300AE7D22B4255FC2D5C20412000CFF24D05A
:1000B300B40A00501A75F00A787B30D50508B6FFEC
:1000C3000106C6A426F620D5047002D20380D924E3
:1000D300CFB41A00EF5004C2E5D20402024FD2019A
:1000E30080C6D20080C0D20280BCD2D580BAD205ED
:1000F30080B47F2012003E2002077401B57B0040CC
:10010300F1120003FF12003E020077D208D20680EC
:1001130095120003FB120003FA120003F94A4B7015
:100123000679207A037BFF20022EE57B602A7E007E
:100133008E8275830012046E60060EEE657C70F08D
:10014300C2D5EBC0E0EAC0E0E9C0E0EE120296D00F
:10015300E0F9D0E0FAD0E0FB120455FF60AAEBC04F
:10016300E0EAC0E0E9C0E012003ED0E02401F9D0AB
:10017300E03400FAD0E0FBE57C0460DCD57CD98078
:10018300877BFF7A027992D202809C791080027970
:1001930008C206C2088008D2D5790A8004790AC247
:1001A300D5E57C047002F57CE4FAFDFEFF12000342
:1001B300FC7B08200113120003FD7B1030000A12A0
:1001C3000003FE120003FF7B20EC3382D592D5504F
:1001D30013C3E43000069FFFE49EFEE42001039D69
:1001E300FDE49CFCE4CBF8C201EC700CCFCECDCC8B
:1001F300E824F8F870F38017C3EF33FFEE33FEED16
:1002030033FDEC33FCEB33FB994002FB0FD8E9EBF6
:10021300300105F8D0E0C448B201C0E00AEC4D4E0D
:100223004F78207B0070C2EAB57C0040BCC0E0126E
:100233000298D0F0D0E0200104C4C0E0C4B201C0F1
:10024300F0120027D0F0D5F0EB020077120524015D
:100253001453018E5800E54C00E14201924F019A7C
:0F02630044019A4900FA4301A0550184460184E1
:100272004501844703405000E92D00ED2E01102B6B
:1002820000F123010E2003292A00A94800000108D9
:100292003F3F3F00790AA2D5200314300509B91067
:1002A200020404B9080104A2D52006025001042068
:1002B20002689202B57B005034C0E07F20300319FF
:1002C2007F30A20272067205500F1202EFC202C202
:1002D20006C205C2087F30800F300503E9C0E01274
:1002E200003E300503D0E0F9D0E0B57BCC300517F5
:1002F2007F30B9100C12003E7F583004077F78809F
:1003020003B9080312003E3002057F2D02003E7F32
:10031200202008F87F2B2006F322920280CF286E3D
:10032200756C6C2900D2011200033001F8C2017809
:100332007B30D50108F60200A92D5043495812001E
:10034200032403B405004001E490033B9312002F01
:0D035200743A12002FD203757B0402018E55
:10050200BB010689828A83F0225002F722BBFE01D8
:02051200F322D2
:10051400FAE6FB0808E6F925F0F618E6CA3AF622E8
:10052400D083D082F8E4937012740193700DA3A366
:1005340093F8740193F5828883E47374029368607A
:06054400EFA3A3A380DF7A
:10080800EFB40A07740D120813740A309811A899E6
:10081800B8130CC2983098FDA899C298B811F63050
:0708280099FDC299F5992228
:00000001FF
